:020000040800F2
:100000000808002045030008490300084B030008C6
:100010004D0300084F0300085103000800000000D2
:100020000000000000000000000000005303000872
:10003000550300080000000057030008590300089A
:100040005B0300085B0300085B0300085B03000818
:100050005B0300085B0300085B0300085B03000808
:100060005B0300085B0300085B0300085B030008F8
:100070005B030008C90C00085B0300085B03000871
:10008000CD0D00085B0300085B0300085B0300085C
:100090005B0300085B0300085B0300085B030008C8
:1000A0005B0300085B0300085B0300085B030008B8
:1000B0005B030008E10900085B0300085B0300081C
:1000C0005B0300085B0300085B0300085B03000898
:1000D0005B0300085B030008AB0800085B03000833
:1000E0005B0300085B0300085B0300085B03000878
:1000F0005B0300085B0300085B0300085B03000868
:100100005B0300085B0300085B0300085B03000857
:100110005B0300085B0300085B0300085B03000847
:100120005B0300085B0300085B0300085B03000837
:1001300000F002F800F047F80AA090E8000C8244B2
:100140008344AAF10107DA4501D100F03CF8AFF28F
:10015000090EBAE80F0013F0010F18BFFB1A43F0A5
:1001600001031847F845000018460000103A24BF64
:1001700078C878C1FAD8520724BF30C830C144BF0C
:1001800004680C607047000000230024002500264E
:10019000103A28BF78C1FBD8520728BF30C148BFEA
:1001A0000B607047662904F09A81002070471FB5E4
:1001B00002F03EF804000020002103F027F9E0607F
:1001C0001FBD10B510BD02F04FF91146FFF7EFFF4C
:1001D00000F00EF802F06DF903B4FFF7F2FF03BC74
:1001E00000F082FA30BF72B662B680F308887047BA
:1001F0001FB54FF0010B4FF0000A00F09FFB00F01D
:10020000C2FB41F2941041490880091D088000207A
:100210003F4908604860886077E03E4800780028E1
:1002200072D0BAF1640F3ADD4FF0000B4FF0640A60
:1002300039490868394903F0C5FE3949086036492B
:100240004868364903F0BEFE35494860324988683F
:10025000324903F0B7FE32498860886803F018FE1F
:1002600004460D462E49486803F012FE06460F4626
:100270002B49086803F00CFE804642460B4629A035
:10028000CDE90067CDE9024501F064FD29A001F048
:1002900061FD2A48008840F0010028490880BBF130
:1002A000000F1CD00AF1010000F0FF0A244A116877
:1002B000194A106803F018FE17490860204A51686F
:1002C000154A506803F010FE134948601C4A9168B3
:1002D000114A906803F008FE0F49886011E0184940
:1002E000886803F0D5FD04460D461549486803F0BB
:1002F000CFFD064632460B460BA0CDE9004501F086
:1003000029FD00200349087000BF86E7340800403B
:1003100078000020190000209C0000200000C84246
:100320009000002025662020256620202566200DCF
:100330000A0000006F6B0D0A00000000000400407E
:10034000D400002008480047FEE7FEE7FEE7FEE78E
:10035000FEE7FEE7FEE7FEE7FEE7FEE703480449A7
:10036000044A054B704700003101000808020020D4
:100370000808002008040020080400204FF0E021B5
:10038000096921F004014FF0E0221161C21700EB6E
:100390005272C2F3C702234B1A701946097801EB57
:1003A0004102C2EBC1114FF6FF7202EAC1011E4ABF
:1003B0001180704701461B4A12784A434FF0E023F0
:1003C0005A6100229A6101221A6100BF4FF0E022B7
:1003D000106900F001021AB100F48032002AF5D051
:1003E00000224FF0E0231A619A61704701460E4ADD
:1003F00012884A434FF0E0235A6100229A61012299
:100400001A6100BF4FF0E022106900F001021AB13A
:1004100000F48032002AF5D000224FF0E0231A6168
:100420009A6170470000002002000020A34A0A40A1
:100430000243A34B1A6070470146072323EA0102D7
:1004400012029F4B1B1D18684FF6FF0318409D4B6F
:10045000184310439A4B1B1D186070472DE9F0415B
:100460000746884614461D462846FFF7E5FFC5F1B6
:10047000040007FA00F60F20284100EA08000643AE
:1004800006F00F06E21704EBD2625211920002F15D
:10049000E022D2F800212146E31704EBD3635B117D
:1004A000A4EB431C012303FA0CF31A432046E31781
:1004B00004EBD3635B119B0003F1E023C3F800213D
:1004C0008148005D40EA06107F490855BDE8F0818B
:1004D00070B504460B46CE1701EB9676C6F387003F
:1004E000CE1701EB9676B610A1EB8606B606350E52
:1004F000764B9B6943F00103744EB3614FEAB63308
:1005000053F820300F26AE40B343714E46F82030EA
:10051000334653F8203004FA05F61E436C4B43F87B
:1005200020606C4B1B6801268E403343694E33605C
:1005300002F0010343B1674B0C331B6801268E4068
:100540003343644E0C36336002F0020343B1614B17
:1005500008331E6801238B401E435E4B08331E6028
:1005600070BD00B5002059490861C8601420486179
:1005700000208861C8610846006840F001000860FA
:100580000846406854490840504948600846006899
:10059000524908404D4908600846006820F4802010
:1005A00008600846406820F4FE004860002088602B
:1005B00000214FF00060FFF739FF00BD10B5404843
:1005C0000830006840F004003D49083108603F48A9
:1005D000C06940F080503D49C8614148406840F4DE
:1005E00080703F4948600846006840F00400086099
:1005F0000846006840F002000860FFF7F3FD10BDF8
:100600003048001D2E49091D086070470146490603
:100610002E4A926942F001022C4B9A612C4A083A08
:10062000526822F070622A4B083B5A601A465268A0
:100630000A435A60704730B504460025FFF791FF22
:100640002248006840F480302049086000BF1F48FD
:100650000068400C0028FAD04FF480601B494860C5
:10066000A01EC4B20846406840EA8440486008467C
:10067000406840F4803048601A48006840F032001A
:10068000184908601148006840F080700F49086000
:1006900000BF0E480068400E0028FAD00B484068A2
:1006A00040F002000949486005E008484068C0F38E
:1006B000870505F00305022DF7D130BD80FFFF1F30
:1006C00008ED00E00000FA0500E400E00010024040
:1006D00008000140000401400000FFF8FFFFF6FEA3
:1006E0000070004000200240014600BF704700BF7C
:1006F000894A128802F04002002AF9D0C2B2864B21
:100700001B1D1A8070472DE9F05F05460E4630012B
:1007100003F086FD8146814905FB01F003F080FD71
:100720008246494603F04EFC0746384603F040FD3A
:1007300084B2204603F074FD8346394603F050FE30
:1007400082464FF0834103F07FFD814603F030FD88
:1007500080464FF6FF7000EA041404EB080084B2F0
:100760006F48806940F004006D49886108468069DF
:1007700040F4804088616B48006820F47F606949DC
:1007800008600846006840F40B6008606448C06870
:1007900040F480406249C8600846C06820F4804048
:1007A000C8605D4808300480001D008842F20C01DA
:1007B000084359490C310880BDE8F09F2DE9F05FEE
:1007C00005460E46300103F02BFD8146534905FBDB
:1007D00001F003F025FD8246494603F0F3FB07468E
:1007E000384603F0E5FC84B2204603F019FD834649
:1007F000394603F0F5FD82464FF0834103F024FDB6
:10080000814603F0D5FC80464FF6FF7000EA0414E1
:1008100004EB080084B24248806940F0040040497B
:1008200088610846C06940F40030C8613D48001F37
:10083000006820F47F403B49091F086008460068B3
:1008400040F40B4008603648006940F400303449F9
:1008500008610846006920F40030086132480480CD
:10086000001D008842F20C0108432F49091D088031
:100870002D480C30008840F040002B490C31088096
:100880002948001D008840F480702749091D088010
:100890000846008840F02000088002232622032119
:1008A0000846FFF7DBFDBDE8F09F1F4808380088C9
:1008B00000F0200078B31C480838008820F02000A1
:1008C000194908390880081D0088552803D10120DE
:1008D000164908700EE01448001F0088512806D100
:1008E0001248007818B101201149087002E0002078
:1008F0000E4908700E48007868B10E48007850B173
:1009000000200C4908700A4908700B48C06E40F07E
:1009100001000949C86670470038014040420F0095
:100920000010024004080140084400400800002074
:10093000090000201A0000200000024010B5092024
:10094000FFF779FE4820FFF719FD00F087F800F067
:10095000B5F84FF4E1314820FFF7D5FE4FF4E1310F
:100960002420FFF72BFF0A4A0A49202000F069F9EA
:10097000272140F60F6000F00FF817214EF65F2098
:1009800000F0BCF810BD10B501F0E5F810BD000096
:10099000A80000200444004070B505460C462848D5
:1009A000C06940F002002649C86126480580001F42
:1009B000048024482038008840F001002149203973
:1009C000088020482C38008840F080001D492C39D0
:1009D000088002231D2201210846FFF73FFD70BD5C
:1009E00018481C38008800F00100F8B1164800785B
:1009F000401C1549087008460078022801D10020E3
:100A0000087012480078401C1049087008460078A9
:100A1000FA280BDD0E480068C0430E49C1F8B40146
:100A200000200A49087001200B49087005481C384D
:100A3000008820F0010003491C390880704700003D
:100A4000001002402C0400400B0000200A0000208F
:100A5000B4012242000022420C0000202348806999
:100A600040F01000214988612148406820F470005E
:100A70001F4948600846406840F4401048600846F6
:100A8000C06840F40050C8601848806940F02000F9
:100A9000164988611748006820F47060154908609D
:100AA0000846006840F44070086012480C30006846
:100AB00040F004000F490C31086070470B48806912
:100AC00040F00800094988610B48006820F00F00D9
:100AD000094908600846006840F0030008600648BD
:100AE0000C30006804490C31086070470010024067
:100AF0000010014000140140000C01402C4AD26952
:100B000042F004022A4BDA611A46926942F0080266
:100B10009A61284A126822F07F42264B1A601A46D0
:100B2000126842F03B421A601A1D126822F0FF025E
:100B30001B1D1A601A46126842F0BB021A601E4A58
:100B40001080121F11801C4A143A128842F0680269
:100B5000194B143B1A801A46128842F4D0421A806C
:100B60001A1D128842F068021B1D1A801A4612884C
:100B700042F4D0421A801A1D128841F211131A430E
:100B80000D4B0C3B1A8080220B4B2C3B1A801A46D3
:100B9000128842F001021A8041F29412064B083387
:100BA0001A801B1D1A801B1D1A801B1D1A8070477E
:100BB00000100240000C01402C08004070B50446B3
:100BC0000D461646E948406940F00100E749486192
:100BD0000520FFF70BFCE6488563C66344630020ED
:100BE000E34908630846006B08630846006B40F061
:100BF000200008630846006B08630846006B40F05D
:100C0000800008630846006B08630846006B0863B1
:100C10000846006B40F4805008630846006B086388
:100C20000846006B40F0020008630846006B40F085
:100C30000100086302230D2200210120FFF70EFCB2
:100C400070BD70B504460D461646C848406940F070
:100C50000100C64948610520FFF7C8FBC448456745
:100C6000866704670020C249C8660846C06EC86629
:100C70000846C06E40F02000C8660846C06EC866D0
:100C80000846C06E40F08000C8660846C06EC86660
:100C90000846C06EC8660846C06E40F48050C866FC
:100CA0000846C06EC8660846C06E40F00200C866BE
:100CB0000846C06E40F00100C866022310220321DE
:100CC0000120FFF7CBFB70BDA948006800F400705D
:100CD00028B1A748406840F40070A54948607047B3
:100CE0002DE9FC5FA349086803F0D2F804460D46DD
:100CF000A149C97DA04A127E41EA022108B202F050
:100D0000D5FD804600229D4B02F078FC00229C4BD2
:100D1000CDE9000102F0E2FD81F0004106462246E5
:100D20002B4602F0CBFF824602F086FB9549086015
:100D30009049486803F0ACF804460D468E49497E58
:100D40008D4A927E41EA022108B202F0AFFD804650
:100D500000228A4B02F052FC06460022884B02F029
:100D6000BDFD81F0004122462B46CDE9000102F095
:100D7000A5FF824602F060FB824948607D49886891
:100D800003F086F882468B467B49C97E7A4A127FF9
:100D900041EA022108B202F089FD80460022774B29
:100DA00002F02CFC06460022754B02F097FD81F004
:100DB0000041044652465B4602F080FFCDE9000147
:100DC00002F03AFB6F498860BDE8FC9F10B56848A7
:100DD000006800F4001000B36548406840F400105B
:100DE0006349486064480078512807D16248C07A56
:100DF000522803D16048807D532809D05C48C06EDA
:100E000020F001005A49C86601205F49087004E0DB
:100E1000FFF766FF01205D49087010BD2DE9F05F06
:100E200055494978544A927841EA022108B202F0C1
:100E30003DFD80460022514B02F0E0FB06460022B9
:100E4000534B02F04BFD0446524A534B02F046FD11
:100E5000824602F0F1FA514908604749C978464A8A
:100E6000127941EA022108B202F020FD0646002272
:100E7000424B02F0C3FB80460022454B02F02EFDA0
:100E80000446444A444B02F029FD824602F0D4FA5B
:100E90004249486038494979374A927941EA022102
:100EA00008B202F003FD80460022344B02F0A6FB9C
:100EB00006460022364B02F011FD0446354A364BF9
:100EC00002F00CFD824602F0B7FA34498860BDE8B2
:100ED000F09F2DE9F0472849097B274A527B41EAD8
:100EE000022108B202F0E2FC80460022234B02F00D
:100EF00085FB064600222A4B02F0F0FC044602F075
:100F00009BFA284908601C49897B1B4AD27B41EA2D
:100F1000022108B202F0CAFC06460022174B02F07A
:100F20006DFB044600221E4B02F0D8FC804602F006
:100F300083FA1C4948601049097C0F4A527C41EAF7
:100F4000022108B202F0B2FC064600220B4B02F06E
:100F500055FB04460022124B02F0C0FC804602F012
:100F60006BFA10498860BDE8F0870000001002406D
:100F70000000024090000020A80000200000E04097
:100F800000806640D40000201A00002019000020D4
:100F9000000030409A99999999992340E0000020E7
:100FA00000409F40C800002070B50020BE49086086
:100FB000BB2000F01FFE002406E0FF2000F01AFE18
:100FC000BA490855601CC4B20E2CF6DBB84800784C
:100FD00000287CD1B5484078B449097840EA01201E
:100FE000B4490988401A00B2B3490880AF48C078B4
:100FF000AE49897840EA0120AE494988401A00B2DA
:10100000AD494880A9484079A849097940EA0120BA
:1010100000B2A9498880A548407AA449097A40EAE3
:101020000120A6490988401A00B2A54908809F48B6
:10103000C07A9E49897A40EA0120A0494988401A2D
:1010400000B29F4948809948407B9849097B40EA13
:1010500001209A498988401A00B2994988809348AA
:10106000C0799249897940EA012000B29549088007
:101070000846B0F9000000F209206421484322210B
:1010800090FBF1F048F6B8014518284603F0B0F897
:101090008D4908608D498C48006802F093FF8A49A9
:1010A00008608748B0F9000010F1040F07DD84489C
:1010B000B0F90000042802DA002081490880804845
:1010C000B0F9020010F1040F09DD7D4800E015E0E1
:1010D000B0F90200042802DA0020794948807848F3
:1010E000B0F9040010F1040F41DD7548B0F90400B7
:1010F00004283CDA00207249888038E06C48007887
:10110000A8B36A4840786949097840EA012000B2EA
:10111000694908806548C0786449897840EA0120B7
:1011200000B265494880614840796049097940EAE0
:10113000012000B2604988805C48407A5B49097AA6
:1011400040EA012000B25E4908805848C07A5749F9
:10115000897A40EA012000B2594948805348407BCF
:101160005249097B40EA012000B25549888001209C
:101170004D49086070BD70B50446002500205449F3
:1011800008604860886053490860486088600120B2
:101190004749087025462AE0FFF706FF4D480068DA
:1011A0004549B1F9001008444A49086008464068BA
:1011B0004149B1F902100844464948604448006872
:1011C0003F49B1F9001008444149086008464068A9
:1011D0003B49B1F9021008443D494860084680681F
:1011E0003749B1F904100844394988606D1E002D53
:1011F000D2DC3848006890FBF4F000B22D4908803A
:101200003448406890FBF4F000B2488030480068F1
:1012100090FBF4F000B2294908802D48406890FB0B
:10122000F4F000B248802A48806890FBF4F000B2E5
:10123000888000201E49087070BD10B500F003FDC5
:10124000752000F065FD70282BD180216B2000F007
:101250004CFD6420FFF7CAF80721682000F045FD27
:101260006420FFF7C3F801216B2000F03EFD002150
:101270006C2000F03AFD02211A2000F036FD00211A
:10128000192000F032FD18211B2000F02EFD102146
:101290001C2000F02AFD00211D2000F026FD012069
:1012A00010BD0020FCE7000080812142EC000020FE
:1012B0001C0000201E0000202A0000202400002026
:1012C000300000203C0000203800002000007A445C
:1012D000FC000020080100200EB5002000900190C5
:1012E0000290FE480088FE49097801EB4101FD4A61
:1012F00022F81100F9484088F949097801EB4101C9
:1013000002EB41014880F5488088F549097801EBF6
:10131000410102EB41018880F1480078401CF0490E
:1013200008700020F049087024E0EF49097801EBCB
:101330004101EC4A32F91110009808440090EA4942
:10134000097801EB410102EB4101B1F9021001986A
:1013500008440190E449097801EB410102EB4101A5
:10136000B1F90410029808440290DF480078401C4C
:10137000DD490870DC4800781428D6DB1421009879
:1013800090FBF1F000B2D94908801421019890FB3C
:10139000F1F000B2D54948801421029890FBF1F099
:1013A00000B2D2498880CE480078142802D10020AB
:1013B000CB4908700EBD10B5FFF7F6FDFFF78CFFA7
:1013C00010BD00B5A7B0CA48B0F900000A9002F0FD
:1013D0000FFFC8490B9002F037FF2590C448B0F9C1
:1013E00002000A9002F004FFC2490B9002F02CFFA9
:1013F0002490BF48B0F904000A9002F0F9FEBD49FC
:101400000B9002F021FF2390B848B0F900000B9038
:1014100002F0EEFE2290B548B0F902000B9002F007
:10142000E7FE2190B148B0F904000B9002F0E0FE15
:101430002090B1480168006802F006FF1F90AF4895
:101440000168AD48006802F0FFFE1E90AC480168DC
:10145000A948006802F0F8FE1D90A84801680068DD
:1014600002F0F2FE1C90A7480168A448006802F050
:10147000EBFE1B90A2480168006802F0E5FE1A909E
:10148000A04801689E48006802F0DEFE19909D4861
:101490000168006802F0D8FE18909B480168006857
:1014A00002F0D2FE119099480168006802F0CCFE6B
:1014B000109097480168006802F0C6FE0F909548AA
:1014C0000168006802F0C0FE0E90914801688F48E4
:1014D000006802F0B9FE0D908E4801688A480068E5
:1014E00002F0B2FE0C908B482399006802F0ACFE2B
:1014F000099087482499006802F0A6FE0790834867
:10150000006880F000400590259902F09DFE06904D
:10151000079902F06FFF0890099902F06BFF7E496E
:101520000A9002F091FE0B90774801680B9802F048
:10153000DBFC7549086077482499006802F084FE56
:10154000099073482399006802F07EFE07906E4868
:101550002599006802F078FE0690079902F0C4FC15
:101560000890099902F046FF6B490A9002F06CFE60
:101570000B90664801680B9802F0B6FC634908605E
:1015800064482599006802F05FFE09905F4823993E
:10159000006802F059FE07905B482499006802F049
:1015A00053FE0690079902F025FF0890099902F072
:1015B0009BFC59490A9002F047FE0B905448016881
:1015C0000B9802F091FC5249086051482599006837
:1015D00002F03AFE09904D482499006802F034FE6A
:1015E000079049482399006802F02EFE069007995B
:1015F00002F07AFC0890099902F0FCFE46490A9034
:1016000002F022FE0B90434801680B9802F06CFC3C
:1016100040490860DDE9101002F066FC05900F9962
:1016200002F062FC06900E9902F05EFC079002F058
:101630002FFCCDE9080101F0C3FECDE90A0101F05C
:10164000FBFE269030482699006802F0BBFC2E492C
:1016500008602E482699006802F0B4FC2B49086007
:101660002B482699006802F0ADFC294908602948FA
:101670002699006802F0A6FC26490860DDE92110E1
:1016800002F0E2FD0A90209902F0DEFD00210B90AD
:1016900002F05AFD01D127B000BD2099084602F0A2
:1016A000D3FD06902199084602F0CEFD04902299C0
:1016B000084602F0C9FD0390049902F015FC05905C
:1016C000069902F011FC079002F0E2FBCDE9080157
:1016D00001F076FECDE90A0120E000002A0000209A
:1016E000740000202C010020750000204000002024
:1016F0003000002089A18B3A5400002058000020BF
:101700005C000020600000206400002068000020D1
:101710006C000020700000206F12033A01F08CFE74
:1017200026902699229802F04DFC22902699219825
:1017300002F048FC21902699209802F043FC20906A
:101740001D991B9802F056FE4FF080410B9002F05D
:101750007BFD179019991E9802F0C6FB4FF080414F
:101760000B9002F071FD16901C991F9802F042FE3A
:101770000A901A9902F03EFE0B90189902F0B4FB01
:1017800015901699209802F05FFD0B9015992198FD
:1017900002F05AFD0A900B9902F02CFE1490159954
:1017A000229802F051FD0B901799209802F04CFD01
:1017B0000A900B9902F01EFE13901799219802F0DF
:1017C00043FD0B901699229802F03EFD0A900B996A
:1017D00002F010FE1290F849149802F035FD0B90BB
:1017E000F64801680B9802F07FFBF4490860F24963
:1017F000139802F029FD0B90F14801680B9802F054
:1018000073FBEF490860EC49129802F01DFD0B9044
:10181000EC4801680B9802F067FBEA4908604FF05A
:101820007F50149902F010FD0A90259902F05CFB9C
:101830000B90E24801680B9802F056FB25904FF0A0
:101840007F50139902F000FD0A90249902F04CFB9E
:101850000B90DB4801680B9802F046FB24904FF098
:101860007F50129902F0F0FC0A90239902F03CFBA1
:101870000B90D44801680B9802F036FB2390D248B5
:101880002399006802F0E0FC0990D0482499006890
:1018900002F0DAFC0790CE48006880F00040059026
:1018A000259902F0D1FC0690079902F0A3FD08905B
:1018B000099902F09FFDC0490A9002F0C5FC0B9007
:1018C000C44801680B9802F00FFBC2490860BE488B
:1018D0002499006802F0B8FC0990BC48239900687C
:1018E00002F0B2FC0790BB482599006802F0ACFCFE
:1018F0000690079902F0F8FA0890099902F07AFD2B
:10190000AD490A9002F0A0FC0B90B14801680B9819
:1019100002F0EAFAAE490860AB482599006802F087
:1019200093FC0990AA482399006802F08DFC079067
:10193000A8482499006802F087FC0690079902F0F5
:1019400059FD0890099902F0CFFA9B490A9002F0DC
:101950007BFC0B909D4801680B9802F0C5FA9B49EF
:1019600008609A482599006802F06EFC0990984832
:101970002499006802F068FC079096482399006853
:1019800002F062FC0690079902F0AEFA08900999FD
:1019900002F030FD88490A9002F056FC0B908A480C
:1019A00001680B9802F0A0FA874908601C991F98FB
:1019B00002F09AFA05901A9902F096FA0690189990
:1019C00002F092FA079002F063FACDE9080101F003
:1019D000F7FCCDE90A0101F02FFD26907D482699FC
:1019E000006802F0EFFA7B490860794826990068A0
:1019F00002F0E8FA7649086074482699006802F017
:101A0000E1FA7249086070482699006802F0DAFA33
:101A10006D4908604FF080401A9902F015FC019062
:101A20004FF040401C9902F00FFC0090019902F029
:101A3000E1FC4FF07E51029002F056FA039002F062
:101A400027FACDE906014FF080401E9902F0FCFB19
:101A500002904FF08040199902F0F6FB0190029934
:101A600002F042FA039002F013FACDE90401DDE935
:101A7000062301F0E5FB4FF0C042574BCDE90801CA
:101A800001F02CFFCDE90A0101F0D6FC53490860B2
:101A90004FF080401D9902F0D7FB04904FF040407A
:101AA0001B9902F0D1FB0390049902F01DFA0590F6
:101AB00002F0EEF9CDE9060101F07AF94FF0C042EB
:101AC000454BCDE9080101F009FFCDE90A0101F01C
:101AD000B3FC424948604FF080400E9902F0B4FBDD
:101AE00001904FF040400F9902F0AEFB0090019939
:101AF00002F080FC4FF07E51029002F0F5F9039065
:101B000002F0C6F9CDE906014FF080400C9902F0D1
:101B10009BFB02904FF080400D9902F095FB0190E5
:101B2000029902F0E1F9039002F0B2F9CDE9040163
:101B3000DDE9062301F084FB4FF0C042264BCDE9DE
:101B4000080101F0CBFECDE90A0101F075FC234943
:101B5000886000BF9FE5002010E0002100EB4002FC
:101B60001F4B23F8121000EB400203EB420251809E
:101B700000EB400203EB42029180401C1428ECDB96
:101B80004FF07E51134A11600021114A11600F4A33
:101B900011600D4A11604FF07E51124A1160002110
:101BA000114A1160114A1160114A11600B4A11600B
:101BB00051609160704700006F12033A48000020A6
:101BC0004C00002050000020600000205C0000203D
:101BD000580000205400002066A64C402001002040
:101BE0002C01002064000020680000206C00002010
:101BF000700000200246002107E0481C81B24FF629
:101C0000FE70814201DD002070474B48008800F0E3
:101C100002000028F1D04848001D0280002107E0A2
:101C2000481C81B24FF6FE70814201DD0020EBE7D7
:101C30004148008800F001000028F1D03E48001D16
:101C40000088C0B2E0E700B53C48806940F0080079
:101C50003A4988610846C06940F48040C861384804
:101C60000068C0F31300364908600846006835492B
:101C700008433349086032480830006840F4604047
:101C80002F490831086001202F4908602A48083888
:101C900000882949083908800846008840F4007007
:101CA00008800846008840F4807008800846008854
:101CB00040F0040008800846008808800846008834
:101CC00008800846008808800846008840F0100018
:101CD00008800846008808800846008840F04000D8
:101CE0000880FF20FFF786FF00BD30B504460B4695
:101CF0000020154908602046FFF77CFF054618467E
:101D0000FFF778FF01201149C1F88001284630BD56
:101D100010B5034600200C49086043F08000FFF72F
:101D200069FFFF20FFF766FF044601200749C1F85D
:101D30008001204610BD000008380040001002401D
:101D4000040C01400000B0BB808121420080214290
:101D5000704700000FB4044910B503AA029800F0C0
:101D600055FA10BC5DF814FB040000202DE9F04189
:101D70000E460446002020622046E168884730B3C2
:101D8000252805D0D4E901219047206A401CF2E7BC
:101D9000E168204600278847050018D0A5F14100DA
:101DA000192802D820354FF40067324629462046CC
:101DB0002760FEF7F7F940B1012804D0F61D26F0A0
:101DC00007060836D8E7361DD6E72846DAE7206A40
:101DD000BDE8F081704770477047704710B500F05C
:101DE0002BFA006810BD10B5044600F025FA046017
:101DF00010BD70472DE9FF4F0C461E464FF0FF37D0
:101E00008BB0D2E90001DDF860800A908A46C1F308
:101E10000A5505B93D46002108464FF00000BAF1C9
:101E2000000F00F4400005DA00EB80004FF44001A1
:101E300001EA50004FEA9059B9F1010F00DDB946AF
:101E40000A9850EA4A000ED044F61050A5F2FF3529
:101E500045432F14B8F1000F1ED07542291E1EDD18
:101E6000C9F100021CE0B8F1010F4FF0000001D0F1
:101E7000302103E0F24305E02154401CB042FBDB7B
:101E800030460022002121540B99C1F80880C1E995
:101E900000200FB0BDE8F08FBD1B6D1CDEE74A4689
:101EA00000DA694206A800F069FA06AB93E8070079
:101EB00003AB83E8070050460A9900F041FB8DE828
:101EC0000700A0F500501F3800900398002D09DD91
:101ED00042F21F014A46084403A90390684600F0F5
:101EE000A0FD08E0A0F500504A461F3803A9039062
:101EF000684600F0AAFD8DE807000004000C03D03E
:101F00004FF0FF30410800E01046B8F1000F03D059
:101F10000022009215461EE0751E05D400F090F9CF
:101F2000303262556D1EF9D5B3460122084302D006
:101F300000227F1C04E02078302801D100227F1E7F
:101F4000002A099786D01DE0112D07DA00F078F9F4
:101F5000303262556D1C50EA0102F5D1084302D0BF
:101F60000098C8B10EE00021681E05E0235C625CA9
:101F700063542254401E491C8142F7DBAB46A81B28
:101F8000401E0990002004F80B000B98099AC0F835
:101F90000880C0E9002B7CE711264FF0000859E7C4
:101FA0002DE9F04F88460446D21D22F0070191B07A
:101FB000D1E90001CDE90A0100F07DFE02460B984F
:101FC000C00F01D02D2007E02068810701D52B200C
:101FD00002E0202101EAC000032A099001D0072A6B
:101FE00005DB03464146204600F088F90BE12078E6
:101FF000800601D5E06900E00620B8F1650F814652
:1020000006D0B8F1660F18D0B8F1670F70D131E083
:102010000020B9F1110F009001DB112301E009F15B
:1020200001030AAA01A90CA8FFF7E4FEDDE90C7080
:10203000002609F10105834647E001204B46009048
:102040004FF000470AAA01A90CA8FFF7D3FEDDE96B
:102050000DB00C995D46002610B909F101000D186C
:10206000B9EB050003D4C0F1FF3609F10105A5EB7A
:1020700009002BE0B9F1010F01DA4FF0010900204E
:10208000B9F1110F0090484601DD112300E003462D
:102090000AAA01A90CA8FFF7ADFEDDE90C704D46B8
:1020A00000268346207800070AD4AB4500DA5D4657
:1020B00001A8012D04DD411911F8011C302907D0B8
:1020C0004F4502DA17F1040F04DA012082460FE0CF
:1020D0006D1EEEE7002F02DCED1B3E4403E0781C92
:1020E000A84200DD7D1CB81B00F1010A4FF000473B
:1020F0002078000703D4AA4501DB4FF0FF3A002106
:10210000B7F1004F0DF143088DF8431024D00220A1
:102110002B23002F01DA7F422D230A21021EA0F17A
:10212000010000DC5FB197FBF1FC97FBF1F201FBD2
:102130001C7C17460CF1300C08F801CDEEE7A8F135
:10214000010003702188090501D5452100E06521C2
:10215000A0F1010800F8011C09980FA9A1EB0807DC
:10216000FF1D00B10120411901EBEA70A16938445B
:10217000081A401EA0612078C00602D42046AFF3A2
:102180000080099828B1D4E901219047206A401CB9
:1021900020622078C00622D52046AFF300801EE0E2
:1021A000002E04DBB34502DD01A8805D00E0302095
:1021B000D4E901219047206A401C2062761CAAF1D4
:1021C00001005FEA000A0AD100F032F8C068016835
:1021D000405CD4E901219047206A401C2062281EFF
:1021E000A5F10105DCDC07E0D4E9012118F8010BB9
:1021F0009047206A401C2062381EA7F10107F3DCDB
:102200002046AFF30080032011B043E6074B70B5C2
:102210000D467B4400F05FF80446284600F01CF9A8
:1022200010B14FF0FF3070BD204670BDD9E4FFFF04
:1022300000487047C401002000487047A4010020F6
:1022400030B5B0F10A024FEA900E71F100034EEA88
:10225000817EB0EB0E0061EB91014FEA101E4EEA59
:10226000017E10EB0E0041EB11114FEA102E4EEAE9
:10227000016E10EB0E0041EB11214FEA104E4EEAB9
:10228000014E10EB0E0041EB1141401841F10001ED
:102290004FEAD00040EA41704FEAD10110EB8005CF
:1022A0004FEA810444EA907444EB01046D1944EB55
:1022B0000404521BA3414FF0000348BF0A3200D56B
:1022C00030BD401C41F1000130BD000001694A1CD5
:1022D00002610878704700B58FB0CDE90131002167
:1022E000059105497944CDE9031011466846FFF789
:1022F0003DFD0FB000BD0000E5FFFFFF2DE9F041FF
:102300001F46044603260168072A01F4006004DB27
:1023100008B116A505E016A503E008B115A500E073
:1023200015A521F010002060A069C01EA0610FB1AA
:10233000401EA0612046AFF300804FB1D4E90121D7
:1023400038469047206A401C2062C01C206206E08C
:10235000206AFAE7D4E9012115F8010B9047761EAF
:10236000F8D22046AFF30080BDE8F0814E414E0028
:102370006E616E00494E4600696E66002DE9F047B9
:10238000814616468AB0334878440DC88DE80D0062
:1023900030487844801C03AC0DC884E80D0041F639
:1023A0009B300844372190FBF1F290FBF1F5A5F149
:1023B000800501FB12041B3C02D56442012000E0B1
:1023C0000020DFF890A080460027FA44AAF1BE0A58
:1023D0000DE0E00709D03246684607EB47010AEBFB
:1023E000810100F032FB8DE8070064107F1C002C97
:1023F000EFD1184F7F44AC3F18E0E80714D007EB4B
:1024000004100DF1180A90E80E008AE80E00C0686A
:10241000F04201D198190890324606A903A800F0AD
:1024200014FB03AB83E807006D10641C002DE4D19E
:1024300032466946B8F1000F03A802D000F0F1FA65
:1024400001E000F002FBC9E90001C9F808200AB068
:10245000BDE8F087B8230000007B00F080007047E3
:1024600000487047A40100207546FFF7F9FFAE460B
:1024700005006946534620F00700854618B020B590
:10248000FDF76CFFBDE820404FF000064FF000075D
:102490004FF000084FF0000B21F00701AC46ACE80C
:1024A000C009ACE8C009ACE8C009ACE8C0098D4679
:1024B00070470446AFF300802046FDF78DFE000014
:1024C0004FF0013C50F8042B51F8043B9A4221D1C3
:1024D000A2EB0C03934313EACC1317D150F8042B4F
:1024E00051F8043B9A4215D1A2EB0C03934313EA33
:1024F000CC130BD150F8042B51F8043B9A4209D16C
:10250000A2EB0C03934313EACC13DBD04FF0000093
:10251000704700BFD01A01BAB1FA81F101F0180179
:1025200022FA01F0CB40C1F12001DBB2C0B2C01AE7
:102530002CFA01F3D11A914311EAC311E6D1704785
:102540005FEA400C08BF91F0000F4FEA8C234FEA7E
:10255000C12243EA51514FEA1C5018BF00F5F04028
:102560004FEA300018BF41F000415FEA6C5C00F0B8
:102570002980BCF1FF3F08BF40F080407047130C3A
:1025800006BF12044FF0100C4FF0000C130E04BFE6
:1025900012020CF1080C130F04BF12010CF1040C11
:1025A000930F04BF92000CF1020CD30F04BF520032
:1025B0000CF1010C11464FF00002A0F11F00A0EB3E
:1025C0000C00704711F0004F08BF704731F0004118
:1025D0003FF4D5AF0B0C06BF09044FF0100C4FF0C1
:1025E000000C0B0E04BF09020CF1080C0B0F04BF0A
:1025F00009010CF1040C8B0F04BF89000CF1020CD3
:10260000CB0F04BF49000CF1010CCCF12003A0EB6F
:102610000C0022FA03F302FA0CF241EA030100F182
:102620000100704720F07F4C80EA030023F07F47D1
:10263000ACEB070303F57C5300F0004003F1FF030C
:102640002DE980494FEA154B09B44FEA144325EAB6
:102650000B4E24EA03480FF2042606EB1327490821
:102660003E785FEA320203FB0667C7F5000707FB07
:1026700006F64FEA54374FEAD64606F1020607FB44
:10268000066CCCF1005C4FEA1C472CEA074C07FBB8
:1026900006F40CFB06F504EB15464FEA961634BF1C
:1026A00000204FF000404FEAD13706FB07FC4FEA0D
:1026B0001C4C0CFB0BF7D21B03FB0CF761EB070167
:1026C0000CFB0EF7B0EB074072EB17420CFB08F760
:1026D00034BFA2EB0742B2EB074261EB17414FEA6E
:1026E0000C444FEA910706FB07FC4FEA1C4C0CFB1D
:1026F0000BF7B0EBC74072EB573203FB0CF734BF5C
:10270000A2EBC742B2EBC74261EB57310CFB0EF7AD
:10271000B0EBC70072EB57720CFB08F734BFA2EBAB
:10272000C702B2EBC70261EB5771039F4FEA8161A9
:1027300041EA921104EBCC044FEAD1374FEA8262AE
:1027400006FB07FC42EA90124FEA80604FEA1C4CFD
:102750000CFB0BF7D21B03FB0CF761EB07010CFB27
:102760000EF7B0EB074072EB17420CFB08F734BFD3
:10277000A2EB0742B2EB074261EB17414FEA8C55DF
:102780004FEA910704EB9C2406FB07FC4FEA1C4C24
:102790000CFB0BF7B0EBC74072EB573203FB0CF7A7
:1027A00034BFA2EBC742B2EBC74261EB57310CFB1F
:1027B0000EF7B0EBC70072EB57720CFB08F734BF93
:1027C000A2EBC702B2EBC70261EB577115EB4C25C8
:1027D0004FEA816141EA92114FEA82624FEAD137B2
:1027E00042EA901206FB07FC44F100044FEA8060C5
:1027F0004FEA1C4C0CFB0BF7D21B03FB0CF761EBF5
:1028000007010CFB0EF7B0EB074072EB17420CFB15
:1028100008F734BFA2EB0742B2EB074261EB174166
:1028200015EB1C154FEA813141EA92414FEA8232A1
:1028300042EA90424FEA80304FEA0C7644F10004BD
:1028400048EA03434EEA0B484FF0000EB2EB080C87
:1028500071EB030724BF624639464EEB0E0E4FF074
:10286000000B0018524149414BEB0B0BB2EB080C2B
:1028700071EB03077BF1000B24BF624639464EEB38
:102880000E0E4FF0000B0018524149414BEB0B0B61
:10289000B2EB080C71EB03077BF1000B24BF62461F
:1028A00039464EEB0E0E51EA020718BF46F00106FC
:1028B00016EB0E7655F1000254F1000103D5BDE888
:1028C0008901BDE80088BDE88901BDE80048B61966
:1028D000524141EB0101A3F10103704780807F7EEB
:1028E0007D7C7B7A79787776767574737271717086
:1028F0006F6E6E6D6C6C6B6A6A6968686766666538
:102900006464636362616160605F5F5E5E5D5D5CC5
:102910005C5B5B5A5A595958585757565655555536
:102920005454535352525251515050504F4F4F4E96
:102930004E4D4D4D4C4C4C4B4B4B4A4A4A494949E4
:102940004848484747474746464645454544444426
:10295000444343434342424242414141002B26D437
:10296000770021D01CB54FEA370703B44FF01000B1
:102970004FF010014FF000000FBCBDE810400BF10C
:10298000010BBBF1010F08BF5FEA170722BF12F16D
:10299000010211F101014FF0004143F1000300F089
:1029A000004043EA00007047F9D35708DAE746EAE7
:1029B000064613F1400F4FEA16461FDD13F1200FB4
:1029C000DFBF16430A46002120335B42C8D0C3F163
:1029D000200746EA064602FA07F74FEA164646EA95
:1029E0000706C3F1200722FA03F201FA07F721FADA
:1029F00003F14FF0000342EA0702B1E746EA02069C
:102A000046EA06464FEA164646EA0106BCBF46EAD3
:102A10000646360C4FF000034FF000024FF0000165
:102A20009EE72DE9C048934630B491E8380007C8C6
:102A300031EA400C48BF34EA430C03D5FFF7F2FDFE
:102A4000FFF78CFFF0BCBDE800882DE9C048934635
:102A500030B491E8380007C810F0804F08BF13F079
:102A6000804F03D100F005F8FFF778FFF0BCBDE818
:102A7000008820F07F4780EA030023F07F4C07EBBB
:102A80000C03A3F57C5300F00040A3F1FE0392F089
:102A9000000F00F0B38095F0000F00F077802DE973
:102AA00001494FEA11404FEA144621EA004800FB71
:102AB00006FC24EA064708FB06F607FB08F800FBBD
:102AC00007F718EB06484CEB164C4FEA124B18EB85
:102AD00007484FEA15464CEB174022EA0B4E0BFB1A
:102AE00006FC25EA06470EFB06F607FB0EFE0BFB6F
:102AF00007F71EEB064E4CEB164C4FF000061EEB94
:102B0000074E4CEB174B18EB0B0840F1000018EB8D
:102B10000E0B58EB000840F100008F1A4FF0000137
:102B20003CBFC943661B14BFB5EB040C00213CBF7E
:102B3000C943F61B4FEA17444EEA8E0E27EA0445B6
:102B40004FEA1C4704FB07622CEA074C05FB07F71A
:102B50000CFB05F604FB0CFC16EB074642EB174298
:102B600016EB0C4642EB1C421BEB060658EB02022E
:102B7000414146EA9E0601D5BDE80189B619524198
:102B800041EB0101A3F10103BDE801894FEA1445BE
:102B90004FEA114724EA054621EA074C05FB07F4F2
:102BA00006FB07F70CFB06F105FB0CFC11EB0741DC
:102BB00044EB17444FEA124711EB0C4144EB1C4421
:102BC00022EA074C05FB07F206FB07F70CFB06F6AB
:102BD00005FB0CFC16EB074642EB174216EB0C46C6
:102BE00042EB1C456A1854F1000148BF7047B61902
:102BF000524141EB0101A3F10103704795F0000F31
:102C000037D04FEA11424FEA144721EA024624EA3C
:102C1000074C02FB07F106FB07F70CFB06F402FB6F
:102C20000CFC14EB074441EB17414FEA154714EB3A
:102C30000C4441EB1C4125EA074C02FB07F506FB5F
:102C400007F70CFB06F602FB0CFC16EB074645EB00
:102C5000174516EB0C4645EB1C42121951F10001C9
:102C600048BF7047B619524141EB0101A3F101037E
:102C700070474FEA14454FEA114724EA054621EA16
:102C8000074C05FB07F106FB07F70CFB06F24FF0BC
:102C9000000605FB0CFC12EB074241EB174112EB5F
:102CA0000C4251EB1C4148BF7047921841EB0101A7
:102CB000A3F101037047490050EAC12018BF042066
:102CC0004A0D18BF40F0010040F2FF72B2EB515FB5
:102CD00008BF40F00200012808BF052070472DE919
:102CE000F0414F1E00EBC7010446D1E90001154633
:102CF0001E4637F006020DD02A46334600F0EEFDA0
:102D00007F1E04EBC703D3E9002300F0C7FB37F0B5
:102D10000602F1D1022F25D0042F13D0062F18BFA1
:102D2000BDE8F0812A46334600F0D8FDD4E90A23F5
:102D300000F0B4FB2A46334600F0D0FDD4E9082366
:102D400000F0ACFB2A46334600F0C8FDD4E9062368
:102D500000F0A4FB2A46334600F0C0FDD4E904236A
:102D600000F09CFB2A46334600F0B8FDD4E902236C
:102D700000F094FB2A46334600F0B0FDD4E900236E
:102D8000BDE8F04100F08ABB012201F0DCBB00F09D
:102D900085BB002213461046114600F02FBC0000F0
:102DA000024A0020110701F0CEBB000001FDFFFF29
:102DB0002DE9F04D8D4F21F0004A86B005460C46B6
:102DC000BA452ADBAAEB070028430AD08848824587
:102DD00001DC1AD1CDB106B02846BDE8F04DFFF7B1
:102DE000D3BF844A844B284600F078FD07460E4640
:102DF000824A834B2846214600F070FD06B03A46D1
:102E00003346BDE8F04D00F049BB0120FEF7EBFF73
:102E100006B0BDE8F04DFFF7BCBF7A48824542DA04
:102E2000BAF1795F0BDA2846FFF745FF042808BF9F
:102E3000FFF7B6FF284606B02146BDE8F08D2A46CA
:102E40000B46104600F04AFD834602466E480E4689
:102E50000B4606217844FFF742FF5A46334600F0FE
:102E60003DFD804669488A465A46334604217844E7
:102E7000FFF735FF5A46334600F030FD00223B464F
:102E800000F00CFB02460B464046514600F0B6FBF4
:102E90002A46234600F022FD06B02A462346BDE816
:102EA000F04D00F0FBBA284624F0004100223D46D8
:102EB0003B4600F011FE4FF0FF3201F044FB0646A6
:102EC000024653480F460B4606217844FFF707FF9A
:102ED00032463B4600F002FDCDE900014D48324646
:102EE0003B4604217844FFF7FAFE32463B4600F0A9
:102EF000F5FC00222B4600F0D1FA834602913046C1
:102F0000394600F05DFA804643480D46504517DCCF
:102F1000DDE900015A46029B00F070FB42462B4659
:102F200000F0DCFC42462B4600F0B8FA012201F02A
:102F30000AFB304A304B00F0C1FE304A304B4CE0C7
:102F40004FF0000A52460B46404600F0A7FACDE982
:102F5000031052462B461046194600F0BFFC32467D
:102F60003B4600F0B9FDDDE9033200F047FB0646C1
:102F70000F46DDE900015A46029B00F03FFB834605
:102F8000009101223046394601F0DDFA194A1A4B08
:102F900000F0A2FD06460F4601224046294601F0F8
:102FA000D2FA5A46009B00F099FC32463B4600F0AC
:102FB00085FE06460F4601225046294601F0C3FA17
:102FC0000E4DDFF858802A46434600F085FD324614
:102FD0003B4600F081FD2A46434600F07DFD002C73
:102FE000D8BF81F0004106B0BDE8F08D0000F03F91
:102FF0000000F07F075C143326A6913C182D445442
:10300000FB21F93F0000E03F801700009617000009
:103010000A170000201700003333EF3FFB21E93F80
:103020002DE9F84F04460D4621F000400091734908
:10303000814211DC7249884201DC06D12CB1204664
:103040002946BDE8F84FFFF79FBE6E48002DCCBF64
:103050006D496E49BDE8F88F6D49814211DD6D49BA
:103060008142D8BF4FF0FF366DDD20462946FFF77D
:1030700022FE042808BFFFF793FE20462946BDE83C
:10308000F88F6549654F25F00045814233DD64497D
:10309000814219DD002632464FF080432046294602
:1030A00000F0FCF980468A4601222046294601F0BC
:1030B0004AFA00223B4600F001FE4246534600F029
:1030C0009DFA04460D463EE001260022BA463B46E4
:1030D0002046294600F0E2F980460F46002253467A
:1030E0002046294600F0EAFD42463B4600F086FABB
:1030F00004460D4627E04B4981421BDDDFF828A13D
:103100000226002253462046294600F0E7FB002213
:103110003B4600F0C3F980460F4600225346204646
:10312000294600F0CBFD42463B4600F067FA0446D4
:103130000D4608E0032622462B4600203B4900F0BE
:103140005DFA04460D4622462B461046194600F00D
:10315000C5FB8B46824602460B4600F0BFFB074686
:103160000246334888460B4606217844FFF7B7FDF0
:1031700052465B4600F0B2FB82462E488B463A46EA
:10318000434605217844FFF7AAFD3A46434600F03E
:10319000A5FB02460B46002E504659460CDA00F0BD
:1031A0007DF922462B4600F099FB01B022462B46C2
:1031B000BDE8F04F00F090BC00F070F922462B46BD
:1031C00000F08CFB1C4A7A4402EBC603D3E90023CF
:1031D00000F074FD22462B4600F070FD174A7A4439
:1031E00002EBC603D3E9002300F076FC009A002A24
:1031F000B8BF81F00041BDE8F88F00000000104426
:103200000000F07F182D4454FB21F93FFB21F9BF4A
:103210000000DC3F0000203E0000F33F0000F03FD4
:103220000000E63F008003400000F83F0000F0BFD0
:1032300022150000E01400007E1400004614000077
:103240002DE9F04D9446CCF1000423F000464CEA01
:103250000404524F46EAD4749A46884621F000424C
:10326000BC4206D8454240EA050442EAD474BC4256
:1032700004D9BDE8F04D6246FFF789BDAAF140557B
:10328000A5F17F6555EA0C040BD0022404EAAA7468
:10329000434DDFF810E144EAD87452EA000B04D041
:1032A0000CE0BDE8F04DFFF7BBBE002C14BF012CB5
:1032B000BDE8F08D022C30D0032C32D056EA0C0B36
:1032C0000AD0BE4220D1BA4209D126F0804622F06F
:1032D00080423346114617E000291ADB25E0DFF86B
:1032E000C8B0FB44002C04BFDBE90001BDE8F08D51
:1032F000012C02BFDBE9000181F00041BDE8F08D47
:10330000022C0AD0032C0CD0BA4212D1B8F1000F13
:103310000BDA23482549BDE8F08D28462449BDE84D
:10332000F08D28467146BDE8F08D1D482149BDE865
:10333000F08D921B12153C2AC4BF19481D490EDCA2
:10334000BAF1000FBEBF12F13C0F0020014606DBB0
:10335000624600F053F921F00041FFF761FE002CB6
:1033600008BFBDE8F08D012C04BF81F00041BDE82D
:10337000F08D114A114B022C07D000F09FFC2A4619
:10338000BDE8F04D0A4B00F099BC00F097FC2A46CE
:10339000BDE8F04D064B00F09FBB00000000F07F41
:1033A000182D4454FB2109C0DA130000FB21F9BF9A
:1033B000FB210940FB21F93F075C143326A6A13C01
:1033C0002DE9F04106460F4600F092FB04000D4641
:1033D00018BF0120284320F00040C0F17F6000F1B9
:1033E000E040C00F0ED0301C18BF0120384320F041
:1033F0000040C0F17F6000F1E040C00F04BF012039
:10340000FEF7F1FC20462946BDE8F08110B5002901
:103410000AD00878002807D005487844FFF750F80C
:10342000002801D0002010BD0248784410BD0000E3
:10343000621300005A13000021F00042A2F1605212
:10344000B2F5801F01F0004328BFD2F17F6C0BD989
:103450005FEA001C43EAC20242EB507018BF70479B
:1034600028BF20F001007047B2F5801FBCBF18468E
:1034700070474FEA410C1CF5001F02D2084600F0CD
:10348000AABF70B500F0D4FA00000089FFF7F6BFBC
:103490004FF00040A0F580007047000010B591EAA1
:1034A000030F48BF83F0004300F11084841A71EBCE
:1034B000030C05D2121943EB0C03001B61EB0C014A
:1034C000DFF824E14FEA1154A4EB135C1EEA430F2A
:1034D00018BF9EEA445F73D023EA0E03DCF1200E8E
:1034E00021EA045143F4801332D322FA0CFE10EB8C
:1034F0000E0023FA0CFE41EB0E01CCF1200E03FA74
:103500000EFE10EB0E0051F10001B1F5801FCCF161
:10351000200E32D201EB045112FA0EF2BDE8104037
:1035200058BF7047401C38BF5FEA420218BF70475F
:10353000002814BF20F0010041F100014FEA4103CF
:1035400013F5001F38BF7047A1F1C04100F0BEBAAB
:10355000012A43EB0302ACF1200CDCF11F0E32BF59
:103560004FF0000E23FA0CF310EB030041EB045173
:10357000B4EB115FD0D0A1EB045101F580114908E3
:103580005FEA300001EB04510ED350F1000038BF68
:1035900012FA0EFE08D1BDE81040C9E7401C38BF42
:1035A0005FEA4202CAD1C3E7BDE810404FEA4103D7
:1035B00013F5001F38BF7047A1F1C04100F086BA73
:1035C0009EEA445F08D011EA5E0FBDE8104004BFD8
:1035D00001F0004100207047BDE8104070B500F0D8
:1035E00027FA00BF64FBBE3E0000E0FF02494FF037
:1035F000000000F076BF00BF0000F87F2DE9C04159
:1036000030B4DFF8A0C23CEA111418BF3CEA13142E
:1036100000F0EC8081EA03051CEA111444EAD57439
:1036200018BF1CEA131500F0C780A4EB05044FF087
:10363000004545EAC12145EAC32341EA505143EA26
:10364000525304F17F74994204F500344FEAC020CC
:103650004FEAC22208BF904200F09C804FEA1365F7
:103660000FF24016765D4FEA134506FB05F7C7F1EA
:10367000807706FB07F74FEAD737A7FB0368764248
:10368000C8F58038A7FB06CE38BFA8F1010807FBB4
:1036900008E64FF0000EA6FB028CE6FB03CEDCF141
:1036A000000CCEF1004E38BFAEF1010EA6FB0C5857
:1036B0004FF000074FF00005E6FB0E87A1FB08C6A0
:1036C000A0FB07CE16EB0E0645F10005E1FB0765F2
:1036D00015F1E04E7EBFA4F580345FEA46066D41E9
:1036E00016F1800745F100054FEA17274FEA0666F5
:1036F00047EA0567A6F1DE46B6F1805F4FEA152579
:103700001FD9384624F0010C05EBC471BCF1FE6FE3
:1037100001EB0C1102D8F0BCBDE8008124425CBF73
:1037200001F5801E9EEAC47F02D4F0BCBDE8008192
:10373000244238D4F0BCA1F1C041BDE8004100F002
:10374000C5B94FEAD22242EA43524FEAD323A7FB3C
:1037500002864FEAD02040EA415007FB03661EEA8A
:103760000E0F4FEAD12105FB026658BFA6EB0056AB
:10377000B6EB00564FEA520E4EEAC37E18EB0E0E21
:1037800056EB530EBDD518EB02085E417F1C55F178
:103790000005B6E74FF480154FF000074FF0000624
:1037A0004FF00008ADE7F0BC4FF0000001F1C04160
:1037B00001F00041BDE8008111EA0C1F0CEA13156D
:1037C00000D00CE013EA0C1F00F025804FF0000041
:1037D000F0BC81EA030101F00041BDE80081F0BCCA
:1037E000BDE8004181EA030100F070B9F0BCBDE81A
:1037F000004170B500F01CF9097EFC3E00F007B8EE
:1038000081EA03014FF0000001F00041704781EAB6
:10381000030100F05BB9F0BCBDE800414FF00000CF
:1038200021497047FFFDFBF9F7F5F4F2F0EEEDEBFF
:10383000E9E8E6E4E3E1E0DEDDDBDAD8D7D5D4D3AE
:10384000D1D0CFCDCCCBCAC8C7C6C5C4C2C1C0BFFA
:10385000BEBDBCBBBAB9B8B7B6B5B4B3B2B1B0AF00
:10386000AEADACABAAA9A8A8A7A6A5A4A3A3A2A1E4
:10387000A09F9F9E9D9C9C9B9A999998979796959F
:1038800095949393929191908F8F8E8E8D8C8C8B3B
:103890008B8A8989888887878685858484838382C3
:1038A000828181800000FF070000F87F10F0004255
:1038B00048BF4042B0FA80F310FA03F10AD0C3F1D6
:1038C0001D0303F580634FEA415002EB035202EB04
:1038D000D12170474FF0000070470000DFF848C169
:1038E00070B51CEA111E1EBF1CEA13159EEA0C0FD0
:1038F00095EA0C0F00F06F8081EA030423EA4C1371
:103900004EEAD47E21EA4C1141F4801143F4801335
:10391000AE44A1FB024CA0FB0365AEF17F7E3619DD
:1039200055EB0C05A1FB034C4CF10003A0FB021C62
:1039300016EB0C06654153F10003094218BF46F02F
:10394000010613F4007F0BD14FEA03314FEA053033
:10395000340341EA155140EA16506FF003020AE0C1
:103960004FEAC3214FEAC520F40241EA555140EA2B
:1039700056506FF0020202EB2E4201EB025585EA2F
:10398000CE710AD05FEA440C18BF24F0004450F115
:10399000000041F1000120EAD47040F2FE7C624553
:1039A00000D270BDA84214BF4FF080444FF0404495
:1039B000002E08BF0024BEF1806FA8BFA1F1C04156
:1039C000BDE8704080F282804FF0000001F1C041FC
:1039D00001F0004170479EEA0C0F0CEA131518BF66
:1039E00095EA0C0F06D04FF0000081EA030E0EF0AE
:1039F000004170BD00F01CF88900013E00F007B8DE
:103A000000F009B84FEA430C5FEA5C5C08D081EA39
:103A1000030100F05BB84FEA410C5FEA5C5CF6D151
:103A20004FF00000014970470000FF070000F87FD9
:103A30000EF1020E2EF0030E5EF8046B364205D432
:103A4000012A43EB030515F5001F12D8012841EBAD
:103A5000010C1CF5001F0CD80ED14FEAD17C15F5D6
:103A6000001F0CEB4C0C0CF1020C08BF4CEBD37C90
:103A700004E04FF0080C01E04FEAD37C0CEB4C055E
:103A800026FA05F606F00706B6F1040C06D20EEB90
:103A9000860CBDE870404CF0010C6047DFE80CF08C
:103AA000090B02024FF000414FF00000A1F5002188
:103AB00070BD19461046012851EB010418BFD4F51A
:103AC000001484BF002001F0004170BD0808A0F57B
:103AD00000114FEA3101704791EA030F10B581F0F0
:103AE00000413FF5E3AC83F0004300F0EFB8000085
:103AF0002DE9F04101F5801CBCF5001FC0F2C38028
:103B00004FEA115C21EA0C510CF1FD0C41F48011DB
:103B10005FEA5C0C0CF5C07C01D3400049413DA438
:103B2000890241EA905187028E0E0A0CA45D04FBC3
:103B300004F602FB06F6C6F14046A4FB0662F60D4B
:103B400046EA422606FB06F4A4FB01235242C3F1D7
:103B5000404338BF5B1EA6FB02420024E6FB032461
:103B6000D20B42EA4446A6FB0623A1FB02E2A3FBDA
:103B700007E4A4184FF0000252F10002E3FB0142F7
:103B80006442C2F1404E38BFAEF1010EA6FB0423E1
:103B90004FF00002E6FB0E32A2FB03464FF000049A
:103BA000B61954F10004E2FB0264A1FB06E6A4FB93
:103BB00007E816EB08064FF0000858F10008E4FB90
:103BC00001687642C8F1405838BFA8F10108A2FB4D
:103BD00006E4A3FB08E52D194FF0000454F100049E
:103BE000E2FB0854A1FB05E6A7FB04E818EB060876
:103BF0004FF0000656F10006E1FB048618F120059F
:103C000056F10006A809A8F11B08B10908F03F0801
:103C1000B8F10A0F40EA86601CD901EB0C51BDE8EF
:103C2000F08100BFFCF5EEE8E2DDD8D3CFCBC7C30F
:103C3000C0BDB9B6B4B1AEACA9A7A5A3A19F9D9BC9
:103C40009A9896959392908F8D8C8B89888786858C
:103C500084838281A0FB006800FB01F208EB42082C
:103C6000B8EB872807D5341858EB0104D5D5401C8C
:103C700051F10001D1E7341A78EB0104CDD4401E94
:103C800071F10001C9E75FEA4C0C5FEA9C5C0DD161
:103C900005D34FF0000001F00041BDE8F081BDE820
:103CA000F04170B5FFF7C4FE6DDBFFBEBDE8F0412B
:103CB0004FF00000004970470000F87F10B591EA0E
:103CC000030F48BF83F000433FF5F0AB841A71EB5C
:103CD000030C07D212198CF0004C43EB0C03001BB1
:103CE00061EB0C01DFF8A4E14FEA1154A4EB135C83
:103CF0001EEA430F18BF9EEA445F00F0B08023EA3B
:103D00006E03524221EA0451C3EB6E0338BF5B1EBF
:103D1000DCF1200E25D322FA0CFE10EB0E0043FA44
:103D20000CFE41EB0E01CCF1200E03FA0EFE10EB5F
:103D30000E0051F10001CCF1200E29D412FA0EF23E
:103D400001EB0451BDE8104058BF7047401C1CBF38
:103D5000B2F1004F704700280CBF491C20F0010051
:103D6000704712EB020E43EB030218BF4FF0010E37
:103D70004EEA4202ACF1200CDCF11E0E54D943FA9B
:103D80000CFE10EB0E0051F1FF31CCF11E0ED5D51B
:103D90000EF1010E12FA0EFE404141EB010101EB62
:103DA000445C5FEA5C5C10D910EBDE7001EB0451FF
:103DB00038BFBEF1004FBDE8104018BF7047002863
:103DC0000CBF491C20F00100704730D24FEAD42CC0
:103DD00011F5001124F400641BD0B1FA81F20B3A02
:103DE000A41AA41ED2F12003914030FA03F3194320
:103DF000904001EBCC71002C01EB0451BDE8104068
:103E0000A8BF704701F1C0414FF0000001F0004130
:103E10007047B0FA80F310FA03F100D110BDE41A34
:103E2000173C4805C90AE4E701EB045110BD4910ED
:103E300001EB0451BDE810404FEA300002E04FF0C2
:103E4000000170474A0008BF0042F8D0B2F5001FD9
:103E500028BF704701F000414FF0000070479EEA14
:103E6000445F07D011EA5E0FBDE8104004BF002197
:103E700000207047BDE8104070B5FFF7D9FD00BFC6
:103E800040DFF63E83F00041104670470000E0FF3F
:103E900043004FEAD30C4FEA3C0C43401FBF40079E
:103EA0000CF1605113F0FE4F70471CF0006F03D10E
:103EB00000200CF0004170470CF0004343EA5070C2
:103EC00010B540EACC0000F040FA00BF00000092BC
:103ED0004FEA0001FFF7FABD4FF000414FF000003C
:103EE000A1F500217047000090EA010F48BF81F062
:103EF000004100F18682421A3CBF801A89184FEABD
:103F0000D0524FF07F4C1CEA410FA2EBD15318BFA7
:103F10009CEA026F00F03B804FF0004C4CEA00201E
:103F20004CEA012121FA03FC10EB0C0C1ED202F129
:103F3000FF325FEA1C2040EBC25038BF70471CF0D4
:103F40007F0F4FEA400C18BFBCF17F4F38BF70475E
:103F5000C3F12003994008BF20F00100BCF17F4F5E
:103F600038BF7047A0F1C04000F035BA4FEA3C00BE
:103F7000000A40EBC25028BF1CF0FF0F4FEA400C74
:103F8000E6D018BFBCF17F4F38BF7047EAE79CEA24
:103F9000026F05D010EA5C0F08BF00F000407047C8
:103FA00010B500F0D2F900BF64FBBE3E401058BF10
:103FB000C0F14040491058BFC1F140418142EFF388
:103FC000008070474FF47F0C1CEAD0121EBF1CEA21
:103FD000D11392EA0C0F93EA0C0F00F0858090EA5F
:103FE000010F48BF42F4807240F4000C41F400001D
:103FF0002CF07F4120F07F4000B58142A2EB03020C
:104000000FF2081CACEB504EC0F100009EF800E02F
:104010004FEA4E0E00FB0EFC38BF49004FEA2C1C45
:1040200002F5FA020CFB0EF34FEACE1E4FEA112CFA
:104030004FEAC1210EEB635E42EB22420EFB0CFC09
:104040004FEA1C5300FB03114FEA112C4FEA0131D8
:104050000EFB0CFC4FEADC4C00FB0C11C14228BFEC
:1040600009184CEB03335DF804EB10EB410143EB13
:10407000C250B2F57C0F38BF704729D512F0F00F4F
:104080001CBF00F1C04000F00040704700818283F7
:104090008485868788898B8C8D8E8F919293959657
:1040A00097999A9C9D9FA0A2A3A5A7A8AAACAEB0E1
:1040B000B2B3B5B7B9BCBEC0C2C5C7C9CCCED1D4E6
:1040C000D7D9DCDFE2E6E9ECF0F3F7FAFE00000016
:1040D0004FEA400C0CF1807CBCF17E4F28BF70474A
:1040E000B0F1C04000F077B990EA010F0CEAD113AB
:1040F00048BF42F48072624538BF634507D213F46B
:104100007F0F16D080EA010000F00040704710B524
:1041100000F01BF9097EFC3E00F005B880EA0100C2
:1041200000F00040704780EA010000F0004000F01D
:1041300052B912F47F0F04BF0248704780EA0100B1
:1041400000F049B90000C07F50EA010C00F1138073
:104150001CF5000F58BFBCF5000F01D48842704712
:1041600007D710F5000F58BF11F5000F15D488427E
:104170007047894270471CF5000F04D5BCF5000F4D
:10418000F7D5814270474FF0807C1CEB400F38BF61
:104190001CEB410F01D28142704710B500F0D5F8F9
:1041A000922449004FF000504FF08051FFF7FEBEBF
:1041B000C10DD1F19E0206DB4FEA002343F000431C
:1041C00023FA02F07047004207D54FEA4001B1F1EF
:1041D000FE4F02D24FF00000704710B500F0B5F866
:1041E00049922480002070476FEA20007047000049
:1041F00010F0004148BF4042B0FA80F310FA03F2D9
:10420000C3F19D030BD051EAC35101EB12205306B9
:1042100038BF704700F1010008BF20F0010070476F
:10422000B0FA80F310FA03F2C3F19D030AD0D90566
:1042300001EB1220530638BF704700F1010008BFA0
:1042400020F00100704700004FF47F0C1CEAD012F0
:104250001EBF1CEAD11392EA0C0F93EA0C0F00F078
:10426000478090EA010F48BF42F480724FF0004C43
:104270004CEA00204CEA012102EB0302A0FB0113EF
:10428000A2F50002002918BF43F001035B0028BF1C
:104290004FEA330342EB22425FEA132C4CEBC2504D
:1042A0002EBFBCEB436FB2F57C0F70474FEA036C37
:1042B000BCF1004F08BF20F00100B2F57C0F38BF01
:1042C00070470BD582F0FF0212F5803FC8BF7047E0
:1042D00000F1C040D8BF00F00040704700F5000C6E
:1042E0005FEA4C0C48BF7047B0F1C04000F073B8B3
:1042F00090EA010F0CEAD11348BF42F48072624584
:1043000038BF634504D280EA010000F000407047E6
:1043100010B500F01AF800BF8900013E00F007B8A0
:1043200000F009B85FEA410C5FEA1C6C08D080EA33
:10433000010000F050B85FEA400C5FEA1C6CF6D157
:104340004FF00040A0F5800070470EF1020E2EF0F5
:10435000030E5EF8044B244204D44FEA4102B2F14A
:104360007F4F11D84FEA4003B3F17F4F0CD80ED1E5
:104370004FEAD07CB2F17F4F0CEB4C0C0CF1020CED
:1043800008BF4CEBD17C04E04FF0080C01E04FEA91
:10439000D17C0CEB4C0324FA03F404F00704B4F1D1
:1043A000040C06D20EEB840CBDE810404CF0010C5E
:1043B0006047DFE80CF0070802024FF00040A0F56C
:1043C000800010BD0846420018BFD2F1807288BF3D
:1043D00000F0004010BDFF2141EAD050C0057047F9
:1043E00080F0004090EA010F7FF585AD81F000413B
:1043F00000F007B890EA010F48BF81F000413FF597
:104400007AAD421A04D882F00042A0EB02001144B7
:104410004FEAD0524FF07F4C1CEA410FA2EBD15330
:1044200018BF9CEA026F4AD04FF0004C4CEA0020C3
:104430004CEA012121FA03FCB0EB0C0C0FD412F072
:10444000FE0F36D05FEA4C001DD5001240EBC25083
:1044500038BF70471CF03F0F18BF70470BE0A2F148
:1044600001025FEA1C2040EBC25038BF70471CF0CD
:104470007F0F18BF7047C3F12003994014BF401E3F
:1044800020F00100704780084FEA122308BF7047F0
:10449000B0FA80FCA2EB0C02CCF1280C60FA0CF014
:1044A00093EA122F04BF00EBC25070474FEAC3706B
:1044B0007047130A5FEADC1008BF7047F6E79CEA12
:1044C000026F04D010EA5C0F08BF0020704710B5DF
:1044D000FFF73BFF40DFF63E81F000407047FDF7FD
:1044E0005FBD0CF00F03092B08BF082000F05980B6
:1044F0000A2B0BD0082B18BF704708BF1CF0400FC9
:104500000AD04FF000004FF0000170471CF0400F40
:1045100018BF4FF0004070471CF0100F08D020F07B
:10452000704300F07F4242EAD3014FEA4370704784
:1045300000F0604021F07F4242EA000201F07F403B
:1045400040EA727070474FF0FF0C4CF4E06C1CEACC
:1045500011531CBF9CEA030C9445C2BFDA4201EB25
:1045600002517047002B0DD0BCF1000F0FD0002A74
:1045700001F00041A4BF41F0E04141F07F614FF004
:104580000000704701F000414FF00000704750EA12
:1045900001334FF09B0C18BF4CF0806C7FF426A8C1
:1045A00070471CF4801F11D01CF4E02F03D06FEA79
:1045B000CC31490070474FF04050EFF3008222F0B9
:1045C000704242EA000282F3008870474FF0000018
:1045D0007047000000000000555555555555C53F22
:1045E0007D6FEB0312D6D4BF5544880E55C1C93F29
:1045F0003B8F68B52882A4BF88B20175E0EF493FC0
:1046000009F7FD0DE13D023F4B2D8A1C273A03C0FF
:10461000C88A599CE52A004059018D1B6C06E6BFEB
:1046200082922EB1C5B8B33F4FBB610567ACDD3F89
:10463000182D4454FB21E93F9BF681D20B73EF3FC9
:10464000182D4454FB21F93FE2652F227F2B7A3C41
:10465000075C143326A6813CBDCBF07A8807703CFA
:10466000075C143326A6913CC4EB98999999C9BF6D
:10467000711623FEC671BCBF6D9A74AFF2B0B3BFA2
:104680009AFDDE522DDEADBF2F6C6A2C44B4A2BF62
:104690000D5555555555D53FFF8300922449C23FCE
:1046A0006E204CC5CD45B73F513DD0A0660DB13F02
:1046B000EB0D76244B7BA93F11DA22E33AAD903F14
:1046C000000000000000000002400000000000A008
:1046D0000000000005400000000000C800000000CD
:1046E0000C4000000000409C000000001940000049
:1046F0000020BCBE0000000034400000BFC91B8E7B
:1047000000000004B5400000504BCFD06607E2CF58
:10471000010000006C4100003E8251AADFEEA73488
:1047200001000000D9420000DCB5A0E23A301F973A
:10473000FFFFFFFFB4450000FD25A0C8E9A3C14F5E
:10474000FFFFFFFFFF3F00000000008000000000AF
:10475000FF3F0000000000800000000098470008B4
:1047600000000020780000006C01000810480008DC
:104770007800002090070000880100081C0000005D
:1047800043000000F8FFFFFF0C0000000E000000D7
:104790000F0000002E0000000000000000000000DC
:1047A0000000000000000000000000000000000009
:1047B00000000000000000000000000000000000F9
:1047C00000000000000000000000000000000000E9
:1047D00000000000000000000000000000000000D9
:1047E0000000000000000000000000000000803F0A
:1047F0000000000000000000000000000000803FFA
:1048000000000000000000000000000000000000A8
:0400000508000131BD
:00000001FF
